{
  "_format": "hh-sol-artifact-1",
  "contractName": "GovernanceDAO",
  "sourceName": "contracts/GovernanceDAO.sol",
  "abi": [
    {
      "inputs": [
        {
          "internalType": "address",
          "name": "_tokenAddress",
          "type": "address"
        },
        {
          "internalType": "uint256",
          "name": "_pricePerShare",
          "type": "uint256"
        }
      ],
      "stateMutability": "nonpayable",
      "type": "constructor"
    },
    {
      "anonymous": false,
      "inputs": [
        {
          "indexed": false,
          "internalType": "address",
          "name": "buyer",
          "type": "address"
        },
        {
          "indexed": false,
          "internalType": "uint256",
          "name": "amount",
          "type": "uint256"
        }
      ],
      "name": "BuyOrder",
      "type": "event"
    },
    {
      "anonymous": false,
      "inputs": [
        {
          "indexed": false,
          "internalType": "address",
          "name": "to",
          "type": "address"
        },
        {
          "indexed": false,
          "internalType": "bool",
          "name": "addedRemoved",
          "type": "bool"
        }
      ],
      "name": "DelegationState",
      "type": "event"
    },
    {
      "anonymous": false,
      "inputs": [
        {
          "indexed": false,
          "internalType": "string",
          "name": "title",
          "type": "string"
        },
        {
          "indexed": false,
          "internalType": "bool",
          "name": "created",
          "type": "bool"
        },
        {
          "indexed": false,
          "internalType": "bool",
          "name": "approved",
          "type": "bool"
        }
      ],
      "name": "ProposalState",
      "type": "event"
    },
    {
      "anonymous": false,
      "inputs": [
        {
          "indexed": false,
          "internalType": "bool",
          "name": "enabled",
          "type": "bool"
        }
      ],
      "name": "SaleState",
      "type": "event"
    },
    {
      "anonymous": false,
      "inputs": [
        {
          "indexed": false,
          "internalType": "address",
          "name": "member",
          "type": "address"
        }
      ],
      "name": "Vote",
      "type": "event"
    },
    {
      "inputs": [
        {
          "internalType": "uint256",
          "name": "amount",
          "type": "uint256"
        }
      ],
      "name": "buyShares",
      "outputs": [],
      "stateMutability": "nonpayable",
      "type": "function"
    },
    {
      "inputs": [
        {
          "internalType": "string",
          "name": "title",
          "type": "string"
        },
        {
          "internalType": "string",
          "name": "description",
          "type": "string"
        },
        {
          "internalType": "address",
          "name": "recipient",
          "type": "address"
        },
        {
          "internalType": "uint256",
          "name": "amount",
          "type": "uint256"
        }
      ],
      "name": "createProposal",
      "outputs": [
        {
          "internalType": "address",
          "name": "",
          "type": "address"
        }
      ],
      "stateMutability": "nonpayable",
      "type": "function"
    },
    {
      "inputs": [
        {
          "internalType": "address",
          "name": "member",
          "type": "address"
        }
      ],
      "name": "delegateMember",
      "outputs": [],
      "stateMutability": "nonpayable",
      "type": "function"
    },
    {
      "inputs": [
        {
          "internalType": "address",
          "name": "",
          "type": "address"
        },
        {
          "internalType": "uint256",
          "name": "",
          "type": "uint256"
        }
      ],
      "name": "delegation",
      "outputs": [
        {
          "internalType": "address",
          "name": "",
          "type": "address"
        }
      ],
      "stateMutability": "view",
      "type": "function"
    },
    {
      "inputs": [
        {
          "internalType": "address",
          "name": "proposalAddr",
          "type": "address"
        }
      ],
      "name": "executeProposal",
      "outputs": [],
      "stateMutability": "nonpayable",
      "type": "function"
    },
    {
      "inputs": [],
      "name": "getProposals",
      "outputs": [
        {
          "components": [
            {
              "internalType": "address",
              "name": "proposalAddr",
              "type": "address"
            },
            {
              "internalType": "string",
              "name": "title",
              "type": "string"
            },
            {
              "internalType": "string",
              "name": "description",
              "type": "string"
            },
            {
              "internalType": "bool",
              "name": "executed",
              "type": "bool"
            },
            {
              "internalType": "bool",
              "name": "approved",
              "type": "bool"
            },
            {
              "internalType": "uint256",
              "name": "voteCountPro",
              "type": "uint256"
            },
            {
              "internalType": "uint256",
              "name": "voteCountCon",
              "type": "uint256"
            },
            {
              "internalType": "uint256",
              "name": "voteCountAbstain",
              "type": "uint256"
            },
            {
              "internalType": "uint256",
              "name": "amount",
              "type": "uint256"
            },
            {
              "internalType": "address",
              "name": "recipient",
              "type": "address"
            }
          ],
          "internalType": "struct GovernanceDAO.Proposal[]",
          "name": "",
          "type": "tuple[]"
        }
      ],
      "stateMutability": "view",
      "type": "function"
    },
    {
      "inputs": [],
      "name": "isMember",
      "outputs": [
        {
          "internalType": "bool",
          "name": "",
          "type": "bool"
        }
      ],
      "stateMutability": "view",
      "type": "function"
    },
    {
      "inputs": [],
      "name": "owner",
      "outputs": [
        {
          "internalType": "address",
          "name": "",
          "type": "address"
        }
      ],
      "stateMutability": "view",
      "type": "function"
    },
    {
      "inputs": [],
      "name": "pricePerShare",
      "outputs": [
        {
          "internalType": "uint256",
          "name": "",
          "type": "uint256"
        }
      ],
      "stateMutability": "view",
      "type": "function"
    },
    {
      "inputs": [
        {
          "internalType": "uint256",
          "name": "",
          "type": "uint256"
        }
      ],
      "name": "proposals",
      "outputs": [
        {
          "internalType": "address",
          "name": "proposalAddr",
          "type": "address"
        },
        {
          "internalType": "string",
          "name": "title",
          "type": "string"
        },
        {
          "internalType": "string",
          "name": "description",
          "type": "string"
        },
        {
          "internalType": "bool",
          "name": "executed",
          "type": "bool"
        },
        {
          "internalType": "bool",
          "name": "approved",
          "type": "bool"
        },
        {
          "internalType": "uint256",
          "name": "voteCountPro",
          "type": "uint256"
        },
        {
          "internalType": "uint256",
          "name": "voteCountCon",
          "type": "uint256"
        },
        {
          "internalType": "uint256",
          "name": "voteCountAbstain",
          "type": "uint256"
        },
        {
          "internalType": "uint256",
          "name": "amount",
          "type": "uint256"
        },
        {
          "internalType": "address",
          "name": "recipient",
          "type": "address"
        }
      ],
      "stateMutability": "view",
      "type": "function"
    },
    {
      "inputs": [
        {
          "internalType": "address",
          "name": "member",
          "type": "address"
        }
      ],
      "name": "removeDelegation",
      "outputs": [],
      "stateMutability": "nonpayable",
      "type": "function"
    },
    {
      "inputs": [],
      "name": "saleEnabled",
      "outputs": [
        {
          "internalType": "bool",
          "name": "",
          "type": "bool"
        }
      ],
      "stateMutability": "view",
      "type": "function"
    },
    {
      "inputs": [
        {
          "internalType": "address",
          "name": "proposalAddr",
          "type": "address"
        }
      ],
      "name": "searchProposal",
      "outputs": [
        {
          "internalType": "uint256",
          "name": "",
          "type": "uint256"
        },
        {
          "components": [
            {
              "internalType": "address",
              "name": "proposalAddr",
              "type": "address"
            },
            {
              "internalType": "string",
              "name": "title",
              "type": "string"
            },
            {
              "internalType": "string",
              "name": "description",
              "type": "string"
            },
            {
              "internalType": "bool",
              "name": "executed",
              "type": "bool"
            },
            {
              "internalType": "bool",
              "name": "approved",
              "type": "bool"
            },
            {
              "internalType": "uint256",
              "name": "voteCountPro",
              "type": "uint256"
            },
            {
              "internalType": "uint256",
              "name": "voteCountCon",
              "type": "uint256"
            },
            {
              "internalType": "uint256",
              "name": "voteCountAbstain",
              "type": "uint256"
            },
            {
              "internalType": "uint256",
              "name": "amount",
              "type": "uint256"
            },
            {
              "internalType": "address",
              "name": "recipient",
              "type": "address"
            }
          ],
          "internalType": "struct GovernanceDAO.Proposal",
          "name": "",
          "type": "tuple"
        }
      ],
      "stateMutability": "view",
      "type": "function"
    },
    {
      "inputs": [
        {
          "internalType": "bool",
          "name": "_saleEnabled",
          "type": "bool"
        }
      ],
      "name": "setSaleState",
      "outputs": [],
      "stateMutability": "nonpayable",
      "type": "function"
    },
    {
      "inputs": [
        {
          "internalType": "address",
          "name": "",
          "type": "address"
        }
      ],
      "name": "shares",
      "outputs": [
        {
          "internalType": "uint256",
          "name": "",
          "type": "uint256"
        }
      ],
      "stateMutability": "view",
      "type": "function"
    },
    {
      "inputs": [],
      "name": "token",
      "outputs": [
        {
          "internalType": "contract PLNTToken",
          "name": "",
          "type": "address"
        }
      ],
      "stateMutability": "view",
      "type": "function"
    },
    {
      "inputs": [
        {
          "internalType": "uint256",
          "name": "proposalId",
          "type": "uint256"
        },
        {
          "internalType": "bool",
          "name": "approve",
          "type": "bool"
        }
      ],
      "name": "vote",
      "outputs": [],
      "stateMutability": "nonpayable",
      "type": "function"
    },
    {
      "inputs": [
        {
          "internalType": "address",
          "name": "proposalAddr",
          "type": "address"
        },
        {
          "internalType": "bool",
          "name": "support",
          "type": "bool"
        },
        {
          "internalType": "bool",
          "name": "abstain",
          "type": "bool"
        }
      ],
      "name": "voteProposal",
      "outputs": [],
      "stateMutability": "nonpayable",
      "type": "function"
    },
    {
      "inputs": [
        {
          "internalType": "uint256",
          "name": "",
          "type": "uint256"
        },
        {
          "internalType": "address",
          "name": "",
          "type": "address"
        }
      ],
      "name": "votes",
      "outputs": [
        {
          "internalType": "bool",
          "name": "",
          "type": "bool"
        }
      ],
      "stateMutability": "view",
      "type": "function"
    }
  ],
  "bytecode": "0x60806040526001600760006101000a81548160ff0219169083151502179055503480156200002c57600080fd5b50604051620041ab380380620041ab833981810160405281019062000052919062000187565b816000806101000a81548173ffffffffffffffffffffffffffffffffffffffff021916908373ffffffffffffffffffffffffffffffffffffffff1602179055508060068190555033600560006101000a81548173ffffffffffffffffffffffffffffffffffffffff021916908373ffffffffffffffffffffffffffffffffffffffff1602179055505050620001ce565b600080fd5b600073ffffffffffffffffffffffffffffffffffffffff82169050919050565b60006200011482620000e7565b9050919050565b620001268162000107565b81146200013257600080fd5b50565b60008151905062000146816200011b565b92915050565b6000819050919050565b62000161816200014c565b81146200016d57600080fd5b50565b600081519050620001818162000156565b92915050565b60008060408385031215620001a157620001a0620000e2565b5b6000620001b18582860162000135565b9250506020620001c48582860162000170565b9150509250929050565b613fcd80620001de6000396000f3fe608060405234801561001057600080fd5b50600436106101215760003560e01c8063a67a03ab116100ad578063d1a93d1811610071578063d1a93d1814610326578063d23254b414610342578063ea5c190814610372578063f0466c731461038e578063fc0c546a146103aa57610121565b8063a67a03ab14610284578063c4e37095146102a0578063c9d27afe146102bc578063ce7c2ac2146102d8578063d02982cf1461030857610121565b80636649764b116100f45780636649764b146101ca57806371b9b646146101fa5780637cdc2eb7146102185780638da5cb5b1461024857806399530b061461026657610121565b8063013cf08b146101265780630c434a431461015f57806362564c481461019057806364a66a51146101ae575b600080fd5b610140600480360381019061013b91906126ab565b6103c8565b6040516101569a999897969594939291906127d3565b60405180910390f35b610179600480360381019061017491906128a9565b610596565b604051610187929190612a2e565b60405180910390f35b6101986108e6565b6040516101a59190612c01565b60405180910390f35b6101c860048036038101906101c39190612c4f565b610b74565b005b6101e460048036038101906101df9190612ca2565b61101e565b6040516101f19190612ce2565b60405180910390f35b61020261106c565b60405161020f9190612cfd565b60405180910390f35b610232600480360381019061022d9190612d7d565b61107f565b60405161023f9190612ce2565b60405180910390f35b610250611475565b60405161025d9190612ce2565b60405180910390f35b61026e61149b565b60405161027b9190612e24565b60405180910390f35b61029e600480360381019061029991906128a9565b6114a1565b005b6102ba60048036038101906102b59190612e3f565b611832565b005b6102d660048036038101906102d19190612e6c565b61197a565b005b6102f260048036038101906102ed91906128a9565b611ba5565b6040516102ff9190612e24565b60405180910390f35b610310611bbd565b60405161031d9190612cfd565b60405180910390f35b610340600480360381019061033b91906126ab565b611c06565b005b61035c60048036038101906103579190612eac565b611eb3565b6040516103699190612cfd565b60405180910390f35b61038c600480360381019061038791906128a9565b611ee2565b005b6103a860048036038101906103a391906128a9565b6121e6565b005b6103b2612538565b6040516103bf9190612f4b565b60405180910390f35b600181815481106103d857600080fd5b90600052602060002090600902016000915090508060000160009054906101000a900473ffffffffffffffffffffffffffffffffffffffff169080600101805461042190612f95565b80601f016020809104026020016040519081016040528092919081815260200182805461044d90612f95565b801561049a5780601f1061046f5761010080835404028352916020019161049a565b820191906000526020600020905b81548152906001019060200180831161047d57829003601f168201915b5050505050908060020180546104af90612f95565b80601f01602080910402602001604051908101604052809291908181526020018280546104db90612f95565b80156105285780601f106104fd57610100808354040283529160200191610528565b820191906000526020600020905b81548152906001019060200180831161050b57829003601f168201915b5050505050908060030160009054906101000a900460ff16908060030160019054906101000a900460ff16908060040154908060050154908060060154908060070154908060080160009054906101000a900473ffffffffffffffffffffffffffffffffffffffff1690508a565b60006105a06125e8565b60005b6001805490508110156108a5578373ffffffffffffffffffffffffffffffffffffffff16600182815481106105db576105da612fc6565b5b906000526020600020906009020160000160009054906101000a900473ffffffffffffffffffffffffffffffffffffffff1673ffffffffffffffffffffffffffffffffffffffff160361089257806001828154811061063d5761063c612fc6565b5b906000526020600020906009020180604051806101400160405290816000820160009054906101000a900473ffffffffffffffffffffffffffffffffffffffff1673ffffffffffffffffffffffffffffffffffffffff1673ffffffffffffffffffffffffffffffffffffffff1681526020016001820180546106be90612f95565b80601f01602080910402602001604051908101604052809291908181526020018280546106ea90612f95565b80156107375780601f1061070c57610100808354040283529160200191610737565b820191906000526020600020905b81548152906001019060200180831161071a57829003601f168201915b5050505050815260200160028201805461075090612f95565b80601f016020809104026020016040519081016040528092919081815260200182805461077c90612f95565b80156107c95780601f1061079e576101008083540402835291602001916107c9565b820191906000526020600020905b8154815290600101906020018083116107ac57829003601f168201915b505050505081526020016003820160009054906101000a900460ff161515151581526020016003820160019054906101000a900460ff16151515158152602001600482015481526020016005820154815260200160068201548152602001600782015481526020016008820160009054906101000a900473ffffffffffffffffffffffffffffffffffffffff1673ffffffffffffffffffffffffffffffffffffffff1673ffffffffffffffffffffffffffffffffffffffff1681525050905092509250506108e1565b808061089d90613024565b9150506105a3565b506040517f08c379a00000000000000000000000000000000000000000000000000000000081526004016108d8906130b8565b60405180910390fd5b915091565b60606001805480602002602001604051908101604052809291908181526020016000905b82821015610b6b5783829060005260206000209060090201604051806101400160405290816000820160009054906101000a900473ffffffffffffffffffffffffffffffffffffffff1673ffffffffffffffffffffffffffffffffffffffff1673ffffffffffffffffffffffffffffffffffffffff16815260200160018201805461099490612f95565b80601f01602080910402602001604051908101604052809291908181526020018280546109c090612f95565b8015610a0d5780601f106109e257610100808354040283529160200191610a0d565b820191906000526020600020905b8154815290600101906020018083116109f057829003601f168201915b50505050508152602001600282018054610a2690612f95565b80601f0160208091040260200160405190810160405280929190818152602001828054610a5290612f95565b8015610a9f5780601f10610a7457610100808354040283529160200191610a9f565b820191906000526020600020905b815481529060010190602001808311610a8257829003601f168201915b505050505081526020016003820160009054906101000a900460ff161515151581526020016003820160019054906101000a900460ff16151515158152602001600482015481526020016005820154815260200160068201548152602001600782015481526020016008820160009054906101000a900473ffffffffffffffffffffffffffffffffffffffff1673ffffffffffffffffffffffffffffffffffffffff1673ffffffffffffffffffffffffffffffffffffffff16815250508152602001906001019061090a565b50505050905090565b6000600260003373ffffffffffffffffffffffffffffffffffffffff1673ffffffffffffffffffffffffffffffffffffffff1681526020019081526020016000205411610bf6576040517f08c379a0000000000000000000000000000000000000000000000000000000008152600401610bed9061314a565b60405180910390fd5b60003390506000600260008373ffffffffffffffffffffffffffffffffffffffff1673ffffffffffffffffffffffffffffffffffffffff1681526020019081526020016000205490506000610c4a86610596565b5090506003600082815260200190815260200160002060008473ffffffffffffffffffffffffffffffffffffffff1673ffffffffffffffffffffffffffffffffffffffff16815260200190815260200160002060009054906101000a900460ff1615610ceb576040517f08c379a0000000000000000000000000000000000000000000000000000000008152600401610ce2906131b6565b60405180910390fd5b600060018281548110610d0157610d00612fc6565b5b9060005260206000209060090201905060005b600460008673ffffffffffffffffffffffffffffffffffffffff1673ffffffffffffffffffffffffffffffffffffffff16815260200190815260200160002080549050811015610f0b576000600460008773ffffffffffffffffffffffffffffffffffffffff1673ffffffffffffffffffffffffffffffffffffffff1681526020019081526020016000208281548110610db157610db0612fc6565b5b9060005260206000200160009054906101000a900473ffffffffffffffffffffffffffffffffffffffff1690506003600085815260200190815260200160002060008273ffffffffffffffffffffffffffffffffffffffff1673ffffffffffffffffffffffffffffffffffffffff16815260200190815260200160002060009054906101000a900460ff16610ef75760016003600086815260200190815260200160002060008373ffffffffffffffffffffffffffffffffffffffff1673ffffffffffffffffffffffffffffffffffffffff16815260200190815260200160002060006101000a81548160ff021916908315150217905550600260008273ffffffffffffffffffffffffffffffffffffffff1673ffffffffffffffffffffffffffffffffffffffff1681526020019081526020016000205485610ef491906131d6565b94505b508080610f0390613024565b915050610d14565b508415610f325782816006016000828254610f2691906131d6565b92505081905550610f75565b8515610f585782816004016000828254610f4c91906131d6565b92505081905550610f74565b82816005016000828254610f6c91906131d6565b925050819055505b5b60016003600084815260200190815260200160002060008673ffffffffffffffffffffffffffffffffffffffff1673ffffffffffffffffffffffffffffffffffffffff16815260200190815260200160002060006101000a81548160ff0219169083151502179055507ff5b08346e1e6b0b55d07ce94e81fcb198d47fbbecfea3b9a476f454c86761ec48460405161100d9190612ce2565b60405180910390a150505050505050565b6004602052816000526040600020818154811061103a57600080fd5b906000526020600020016000915091509054906101000a900473ffffffffffffffffffffffffffffffffffffffff1681565b600760009054906101000a900460ff1681565b600080600260003373ffffffffffffffffffffffffffffffffffffffff1673ffffffffffffffffffffffffffffffffffffffff1681526020019081526020016000205411611102576040517f08c379a00000000000000000000000000000000000000000000000000000000081526004016110f99061314a565b60405180910390fd5b61110c878761255c565b1561114c576040517f08c379a000000000000000000000000000000000000000000000000000000000815260040161114390613256565b60405180910390fd5b611156858561255c565b15611196576040517f08c379a000000000000000000000000000000000000000000000000000000000815260040161118d906132c2565b60405180910390fd5b6000878787876040516020016111af9493929190613321565b604051602081830303815290604052905060006111cb826125b5565b905060006040518061014001604052808373ffffffffffffffffffffffffffffffffffffffff1681526020018b8b8080601f016020809104026020016040519081016040528093929190818152602001838380828437600081840152601f19601f82011690508083019250505050505050815260200189898080601f016020809104026020016040519081016040528093929190818152602001838380828437600081840152601f19601f8201169050808301925050505050505081526020016000151581526020016000151581526020016000815260200160008152602001600081526020018681526020018773ffffffffffffffffffffffffffffffffffffffff168152509050600181908060018154018082558091505060019003906000526020600020906009020160009091909190915060008201518160000160006101000a81548173ffffffffffffffffffffffffffffffffffffffff021916908373ffffffffffffffffffffffffffffffffffffffff160217905550602082015181600101908161135c919061351a565b506040820151816002019081611372919061351a565b5060608201518160030160006101000a81548160ff02191690831515021790555060808201518160030160016101000a81548160ff02191690831515021790555060a0820151816004015560c0820151816005015560e0820151816006015561010082015181600701556101208201518160080160006101000a81548173ffffffffffffffffffffffffffffffffffffffff021916908373ffffffffffffffffffffffffffffffffffffffff16021790555050507f97cb5a54d7ce3c4d19b622379e0592b26257af5456164b0b30c7103b2eebb5538a8a6001600060405161145d9493929190613619565b60405180910390a18193505050509695505050505050565b600560009054906101000a900473ffffffffffffffffffffffffffffffffffffffff1681565b60065481565b600560009054906101000a900473ffffffffffffffffffffffffffffffffffffffff1673ffffffffffffffffffffffffffffffffffffffff163373ffffffffffffffffffffffffffffffffffffffff1614611531576040517f08c379a0000000000000000000000000000000000000000000000000000000008152600401611528906136cb565b60405180910390fd5b600061153c82610596565b50905060006001828154811061155557611554612fc6565b5b906000526020600020906009020190508060030160009054906101000a900460ff16156115b7576040517f08c379a00000000000000000000000000000000000000000000000000000000081526004016115ae90613737565b60405180910390fd5b60008160060154826005015483600401546115d291906131d6565b6115dc91906131d6565b905060008111611621576040517f08c379a0000000000000000000000000000000000000000000000000000000008152600401611618906137a3565b60405180910390fd5b60018260030160006101000a81548160ff0219169083151502179055508160050154826004015411156117dc5760018260030160016101000a81548160ff021916908315150217905550600073ffffffffffffffffffffffffffffffffffffffff168260080160009054906101000a900473ffffffffffffffffffffffffffffffffffffffff1673ffffffffffffffffffffffffffffffffffffffff16141580156116d0575060008260070154115b156117db5760008054906101000a900473ffffffffffffffffffffffffffffffffffffffff1673ffffffffffffffffffffffffffffffffffffffff1663a9059cbb8360080160009054906101000a900473ffffffffffffffffffffffffffffffffffffffff1684600701546040518363ffffffff1660e01b81526004016117589291906137c3565b6020604051808303816000875af1158015611777573d6000803e3d6000fd5b505050506040513d601f19601f8201168201806040525081019061179b9190613801565b6117da576040517f08c379a00000000000000000000000000000000000000000000000000000000081526004016117d19061387a565b60405180910390fd5b5b5b7f97cb5a54d7ce3c4d19b622379e0592b26257af5456164b0b30c7103b2eebb5538260010160008460030160019054906101000a900460ff166040516118249392919061391e565b60405180910390a150505050565b600560009054906101000a900473ffffffffffffffffffffffffffffffffffffffff1673ffffffffffffffffffffffffffffffffffffffff163373ffffffffffffffffffffffffffffffffffffffff16146118c2576040517f08c379a00000000000000000000000000000000000000000000000000000000081526004016118b9906136cb565b60405180910390fd5b801515600760009054906101000a900460ff16151503611917576040517f08c379a000000000000000000000000000000000000000000000000000000000815260040161190e906139ce565b60405180910390fd5b80600760006101000a81548160ff0219169083151502179055507f6143d1994b0bc2db674da4f758fd5d5f18fa202a65acd97b74f38cbe90874f37600760009054906101000a900460ff1660405161196f9190612cfd565b60405180910390a150565b6000600260003373ffffffffffffffffffffffffffffffffffffffff1673ffffffffffffffffffffffffffffffffffffffff16815260200190815260200160002054116119fc576040517f08c379a00000000000000000000000000000000000000000000000000000000081526004016119f390613a3a565b60405180910390fd5b600060018381548110611a1257611a11612fc6565b5b906000526020600020906009020190506003600084815260200190815260200160002060003373ffffffffffffffffffffffffffffffffffffffff1673ffffffffffffffffffffffffffffffffffffffff16815260200190815260200160002060009054906101000a900460ff1615611ac0576040517f08c379a0000000000000000000000000000000000000000000000000000000008152600401611ab790613acc565b60405180910390fd5b8115611ae557806004016000815480929190611adb90613024565b9190505550611b00565b806005016000815480929190611afa90613024565b91905055505b60016003600085815260200190815260200160002060003373ffffffffffffffffffffffffffffffffffffffff1673ffffffffffffffffffffffffffffffffffffffff16815260200190815260200160002060006101000a81548160ff0219169083151502179055507ff5b08346e1e6b0b55d07ce94e81fcb198d47fbbecfea3b9a476f454c86761ec433604051611b989190612ce2565b60405180910390a1505050565b60026020528060005260406000206000915090505481565b600080600260003373ffffffffffffffffffffffffffffffffffffffff1673ffffffffffffffffffffffffffffffffffffffff1681526020019081526020016000205411905090565b600760009054906101000a900460ff16611c55576040517f08c379a0000000000000000000000000000000000000000000000000000000008152600401611c4c90613b38565b60405180910390fd5b600560009054906101000a900473ffffffffffffffffffffffffffffffffffffffff1673ffffffffffffffffffffffffffffffffffffffff163373ffffffffffffffffffffffffffffffffffffffff1603611ce5576040517f08c379a0000000000000000000000000000000000000000000000000000000008152600401611cdc90613ba4565b60405180910390fd5b60008103611d28576040517f08c379a0000000000000000000000000000000000000000000000000000000008152600401611d1f90613c10565b60405180910390fd5b600060065482611d389190613c30565b905060008060009054906101000a900473ffffffffffffffffffffffffffffffffffffffff1673ffffffffffffffffffffffffffffffffffffffff166323b872dd3330856040518463ffffffff1660e01b8152600401611d9a93929190613c72565b6020604051808303816000875af1158015611db9573d6000803e3d6000fd5b505050506040513d601f19601f82011682018060405250810190611ddd9190613801565b905080611e1f576040517f08c379a0000000000000000000000000000000000000000000000000000000008152600401611e1690613cf5565b60405180910390fd5b82600260003373ffffffffffffffffffffffffffffffffffffffff1673ffffffffffffffffffffffffffffffffffffffff1681526020019081526020016000206000828254611e6e91906131d6565b925050819055507f8b6a56dfe56f5a7633beab62f0545e2d5bc923c6a63682af1cfddcd5a4a08b643384604051611ea69291906137c3565b60405180910390a1505050565b60036020528160005260406000206020528060005260406000206000915091509054906101000a900460ff1681565b6000600260003373ffffffffffffffffffffffffffffffffffffffff1673ffffffffffffffffffffffffffffffffffffffff1681526020019081526020016000205411611f64576040517f08c379a0000000000000000000000000000000000000000000000000000000008152600401611f5b9061314a565b60405180910390fd5b6000600260008373ffffffffffffffffffffffffffffffffffffffff1673ffffffffffffffffffffffffffffffffffffffff1681526020019081526020016000205411611fe6576040517f08c379a0000000000000000000000000000000000000000000000000000000008152600401611fdd90613d61565b60405180910390fd5b6000600460008373ffffffffffffffffffffffffffffffffffffffff1673ffffffffffffffffffffffffffffffffffffffff16815260200190815260200160002090506000805b82805490508110156120c5573373ffffffffffffffffffffffffffffffffffffffff1683828154811061206357612062612fc6565b5b9060005260206000200160009054906101000a900473ffffffffffffffffffffffffffffffffffffffff1673ffffffffffffffffffffffffffffffffffffffff16036120b257600191506120c5565b80806120bd90613024565b91505061202d565b508015612107576040517f08c379a00000000000000000000000000000000000000000000000000000000081526004016120fe90613dcd565b60405180910390fd5b600460008473ffffffffffffffffffffffffffffffffffffffff1673ffffffffffffffffffffffffffffffffffffffff168152602001908152602001600020339080600181540180825580915050600190039060005260206000200160009091909190916101000a81548173ffffffffffffffffffffffffffffffffffffffff021916908373ffffffffffffffffffffffffffffffffffffffff1602179055507f37779267306170a7f18b98a4e0a626c242aa15d10b24287faf1ff1eaa9e25dff8360016040516121d9929190613ded565b60405180910390a1505050565b6000600260003373ffffffffffffffffffffffffffffffffffffffff1673ffffffffffffffffffffffffffffffffffffffff1681526020019081526020016000205411612268576040517f08c379a000000000000000000000000000000000000000000000000000000000815260040161225f9061314a565b60405180910390fd5b6000600260008373ffffffffffffffffffffffffffffffffffffffff1673ffffffffffffffffffffffffffffffffffffffff16815260200190815260200160002054116122ea576040517f08c379a00000000000000000000000000000000000000000000000000000000081526004016122e190613d61565b60405180910390fd5b6000600460008373ffffffffffffffffffffffffffffffffffffffff1673ffffffffffffffffffffffffffffffffffffffff16815260200190815260200160002090506000805b82805490508110156124b8573373ffffffffffffffffffffffffffffffffffffffff1683828154811061236757612366612fc6565b5b9060005260206000200160009054906101000a900473ffffffffffffffffffffffffffffffffffffffff1673ffffffffffffffffffffffffffffffffffffffff16036124a5576001915082600184805490506123c39190613e16565b815481106123d4576123d3612fc6565b5b9060005260206000200160009054906101000a900473ffffffffffffffffffffffffffffffffffffffff1683828154811061241257612411612fc6565b5b9060005260206000200160006101000a81548173ffffffffffffffffffffffffffffffffffffffff021916908373ffffffffffffffffffffffffffffffffffffffff1602179055508280548061246b5761246a613e4a565b5b6001900381819060005260206000200160006101000a81549073ffffffffffffffffffffffffffffffffffffffff021916905590556124b8565b80806124b090613024565b915050612331565b50806124f9576040517f08c379a00000000000000000000000000000000000000000000000000000000081526004016124f090613ec5565b60405180910390fd5b7f37779267306170a7f18b98a4e0a626c242aa15d10b24287faf1ff1eaa9e25dff83600060405161252b929190613ded565b60405180910390a1505050565b60008054906101000a900473ffffffffffffffffffffffffffffffffffffffff1681565b600060405160200161256d90613f0b565b604051602081830303815290604052805190602001208383604051602001612596929190613f2b565b6040516020818303038152906040528051906020012014905092915050565b6000816040516020016125c89190613f80565b6040516020818303038152906040528051906020012060001c9050919050565b604051806101400160405280600073ffffffffffffffffffffffffffffffffffffffff168152602001606081526020016060815260200160001515815260200160001515815260200160008152602001600081526020016000815260200160008152602001600073ffffffffffffffffffffffffffffffffffffffff1681525090565b600080fd5b600080fd5b6000819050919050565b61268881612675565b811461269357600080fd5b50565b6000813590506126a58161267f565b92915050565b6000602082840312156126c1576126c061266b565b5b60006126cf84828501612696565b91505092915050565b600073ffffffffffffffffffffffffffffffffffffffff82169050919050565b6000612703826126d8565b9050919050565b612713816126f8565b82525050565b600081519050919050565b600082825260208201905092915050565b60005b83811015612753578082015181840152602081019050612738565b60008484015250505050565b6000601f19601f8301169050919050565b600061277b82612719565b6127858185612724565b9350612795818560208601612735565b61279e8161275f565b840191505092915050565b60008115159050919050565b6127be816127a9565b82525050565b6127cd81612675565b82525050565b6000610140820190506127e9600083018d61270a565b81810360208301526127fb818c612770565b9050818103604083015261280f818b612770565b905061281e606083018a6127b5565b61282b60808301896127b5565b61283860a08301886127c4565b61284560c08301876127c4565b61285260e08301866127c4565b6128606101008301856127c4565b61286e61012083018461270a565b9b9a5050505050505050505050565b612886816126f8565b811461289157600080fd5b50565b6000813590506128a38161287d565b92915050565b6000602082840312156128bf576128be61266b565b5b60006128cd84828501612894565b91505092915050565b6128df816126f8565b82525050565b600082825260208201905092915050565b600061290182612719565b61290b81856128e5565b935061291b818560208601612735565b6129248161275f565b840191505092915050565b612938816127a9565b82525050565b61294781612675565b82525050565b60006101408301600083015161296660008601826128d6565b506020830151848203602086015261297e82826128f6565b9150506040830151848203604086015261299882826128f6565b91505060608301516129ad606086018261292f565b5060808301516129c0608086018261292f565b5060a08301516129d360a086018261293e565b5060c08301516129e660c086018261293e565b5060e08301516129f960e086018261293e565b50610100830151612a0e61010086018261293e565b50610120830151612a236101208601826128d6565b508091505092915050565b6000604082019050612a4360008301856127c4565b8181036020830152612a55818461294d565b90509392505050565b600081519050919050565b600082825260208201905092915050565b6000819050602082019050919050565b600061014083016000830151612aa360008601826128d6565b5060208301518482036020860152612abb82826128f6565b91505060408301518482036040860152612ad582826128f6565b9150506060830151612aea606086018261292f565b506080830151612afd608086018261292f565b5060a0830151612b1060a086018261293e565b5060c0830151612b2360c086018261293e565b5060e0830151612b3660e086018261293e565b50610100830151612b4b61010086018261293e565b50610120830151612b606101208601826128d6565b508091505092915050565b6000612b778383612a8a565b905092915050565b6000602082019050919050565b6000612b9782612a5e565b612ba18185612a69565b935083602082028501612bb385612a7a565b8060005b85811015612bef5784840389528151612bd08582612b6b565b9450612bdb83612b7f565b925060208a01995050600181019050612bb7565b50829750879550505050505092915050565b60006020820190508181036000830152612c1b8184612b8c565b905092915050565b612c2c816127a9565b8114612c3757600080fd5b50565b600081359050612c4981612c23565b92915050565b600080600060608486031215612c6857612c6761266b565b5b6000612c7686828701612894565b9350506020612c8786828701612c3a565b9250506040612c9886828701612c3a565b9150509250925092565b60008060408385031215612cb957612cb861266b565b5b6000612cc785828601612894565b9250506020612cd885828601612696565b9150509250929050565b6000602082019050612cf7600083018461270a565b92915050565b6000602082019050612d1260008301846127b5565b92915050565b600080fd5b600080fd5b600080fd5b60008083601f840112612d3d57612d3c612d18565b5b8235905067ffffffffffffffff811115612d5a57612d59612d1d565b5b602083019150836001820283011115612d7657612d75612d22565b5b9250929050565b60008060008060008060808789031215612d9a57612d9961266b565b5b600087013567ffffffffffffffff811115612db857612db7612670565b5b612dc489828a01612d27565b9650965050602087013567ffffffffffffffff811115612de757612de6612670565b5b612df389828a01612d27565b94509450506040612e0689828a01612894565b9250506060612e1789828a01612696565b9150509295509295509295565b6000602082019050612e3960008301846127c4565b92915050565b600060208284031215612e5557612e5461266b565b5b6000612e6384828501612c3a565b91505092915050565b60008060408385031215612e8357612e8261266b565b5b6000612e9185828601612696565b9250506020612ea285828601612c3a565b9150509250929050565b60008060408385031215612ec357612ec261266b565b5b6000612ed185828601612696565b9250506020612ee285828601612894565b9150509250929050565b6000819050919050565b6000612f11612f0c612f07846126d8565b612eec565b6126d8565b9050919050565b6000612f2382612ef6565b9050919050565b6000612f3582612f18565b9050919050565b612f4581612f2a565b82525050565b6000602082019050612f606000830184612f3c565b92915050565b7f4e487b7100000000000000000000000000000000000000000000000000000000600052602260045260246000fd5b60006002820490506001821680612fad57607f821691505b602082108103612fc057612fbf612f66565b5b50919050565b7f4e487b7100000000000000000000000000000000000000000000000000000000600052603260045260246000fd5b7f4e487b7100000000000000000000000000000000000000000000000000000000600052601160045260246000fd5b600061302f82612675565b91507fffffffffffffffffffffffffffffffffffffffffffffffffffffffffffffffff820361306157613060612ff5565b5b600182019050919050565b7f50726f706f73616c206e6f7420666f756e640000000000000000000000000000600082015250565b60006130a2601283612724565b91506130ad8261306c565b602082019050919050565b600060208201905081810360008301526130d181613095565b9050919050565b7f5468697320616374696f6e206973207265737472696374656420746f2074686560008201527f206d656d626572206f6e6c792e00000000000000000000000000000000000000602082015250565b6000613134602d83612724565b915061313f826130d8565b604082019050919050565b6000602082019050818103600083015261316381613127565b9050919050565b7f416c726561647920766f74656400000000000000000000000000000000000000600082015250565b60006131a0600d83612724565b91506131ab8261316a565b602082019050919050565b600060208201905081810360008301526131cf81613193565b9050919050565b60006131e182612675565b91506131ec83612675565b925082820190508082111561320457613203612ff5565b5b92915050565b7f456d707479207469746c65000000000000000000000000000000000000000000600082015250565b6000613240600b83612724565b915061324b8261320a565b602082019050919050565b6000602082019050818103600083015261326f81613233565b9050919050565b7f456d707479206465736372697074696f6e000000000000000000000000000000600082015250565b60006132ac601183612724565b91506132b782613276565b602082019050919050565b600060208201905081810360008301526132db8161329f565b9050919050565b600081905092915050565b82818337600083830152505050565b600061330883856132e2565b93506133158385846132ed565b82840190509392505050565b600061332e8286886132fc565b915061333b8284866132fc565b915081905095945050505050565b7f4e487b7100000000000000000000000000000000000000000000000000000000600052604160045260246000fd5b60008190508160005260206000209050919050565b60006020601f8301049050919050565b600082821b905092915050565b6000600883026133da7fffffffffffffffffffffffffffffffffffffffffffffffffffffffffffffffff8261339d565b6133e4868361339d565b95508019841693508086168417925050509392505050565b600061341761341261340d84612675565b612eec565b612675565b9050919050565b6000819050919050565b613431836133fc565b61344561343d8261341e565b8484546133aa565b825550505050565b600090565b61345a61344d565b613465818484613428565b505050565b5b818110156134895761347e600082613452565b60018101905061346b565b5050565b601f8211156134ce5761349f81613378565b6134a88461338d565b810160208510156134b7578190505b6134cb6134c38561338d565b83018261346a565b50505b505050565b600082821c905092915050565b60006134f1600019846008026134d3565b1980831691505092915050565b600061350a83836134e0565b9150826002028217905092915050565b61352382612719565b67ffffffffffffffff81111561353c5761353b613349565b5b6135468254612f95565b61355182828561348d565b600060209050601f8311600181146135845760008415613572578287015190505b61357c85826134fe565b8655506135e4565b601f19841661359286613378565b60005b828110156135ba57848901518255600182019150602085019450602081019050613595565b868310156135d757848901516135d3601f8916826134e0565b8355505b6001600288020188555050505b505050505050565b60006135f88385612724565b93506136058385846132ed565b61360e8361275f565b840190509392505050565b600060608201905081810360008301526136348186886135ec565b905061364360208301856127b5565b61365060408301846127b5565b95945050505050565b7f5468697320616374696f6e206973207265737472696374656420746f2074686560008201527f206f776e6572206f6e6c792e0000000000000000000000000000000000000000602082015250565b60006136b5602c83612724565b91506136c082613659565b604082019050919050565b600060208201905081810360008301526136e4816136a8565b9050919050565b7f50726f706f73616c20616c726561647920657865637574656400000000000000600082015250565b6000613721601983612724565b915061372c826136eb565b602082019050919050565b6000602082019050818103600083015261375081613714565b9050919050565b7f4e6f7420656e6f67687420766f74657300000000000000000000000000000000600082015250565b600061378d601083612724565b915061379882613757565b602082019050919050565b600060208201905081810360008301526137bc81613780565b9050919050565b60006040820190506137d8600083018561270a565b6137e560208301846127c4565b9392505050565b6000815190506137fb81612c23565b92915050565b6000602082840312156138175761381661266b565b5b6000613825848285016137ec565b91505092915050565b7f546f6b656e207472616e73666572206661696c65640000000000000000000000600082015250565b6000613864601583612724565b915061386f8261382e565b602082019050919050565b6000602082019050818103600083015261389381613857565b9050919050565b600081546138a781612f95565b6138b18186612724565b945060018216600081146138cc57600181146138e257613915565b60ff198316865281151560200286019350613915565b6138eb85613378565b60005b8381101561390d578154818901526001820191506020810190506138ee565b808801955050505b50505092915050565b60006060820190508181036000830152613938818661389a565b905061394760208301856127b5565b61395460408301846127b5565b949350505050565b7f5468652073616c6520737461746520697320616c726561647920696e2074686560008201527f20636f7272656374207374617465000000000000000000000000000000000000602082015250565b60006139b8602e83612724565b91506139c38261395c565b604082019050919050565b600060208201905081810360008301526139e7816139ab565b9050919050565b7f596f75206d757374206f776e20746f6b656e7320746f20766f74650000000000600082015250565b6000613a24601b83612724565b9150613a2f826139ee565b602082019050919050565b60006020820190508181036000830152613a5381613a17565b9050919050565b7f596f75206861766520616c726561647920766f746564206f6e2074686973207060008201527f726f706f73616c00000000000000000000000000000000000000000000000000602082015250565b6000613ab6602783612724565b9150613ac182613a5a565b604082019050919050565b60006020820190508181036000830152613ae581613aa9565b9050919050565b7f53616c6520697320636c6f736564000000000000000000000000000000000000600082015250565b6000613b22600e83612724565b9150613b2d82613aec565b602082019050919050565b60006020820190508181036000830152613b5181613b15565b9050919050565b7f53656e6465722063616e277420626520746865206f776e657200000000000000600082015250565b6000613b8e601983612724565b9150613b9982613b58565b602082019050919050565b60006020820190508181036000830152613bbd81613b81565b9050919050565b7f416d6f756e74206d7573742062652067726561746572207468616e2030000000600082015250565b6000613bfa601d83612724565b9150613c0582613bc4565b602082019050919050565b60006020820190508181036000830152613c2981613bed565b9050919050565b6000613c3b82612675565b9150613c4683612675565b9250828202613c5481612675565b91508282048414831517613c6b57613c6a612ff5565b5b5092915050565b6000606082019050613c87600083018661270a565b613c94602083018561270a565b613ca160408301846127c4565b949350505050565b7f5472616e73666572206661696c65640000000000000000000000000000000000600082015250565b6000613cdf600f83612724565b9150613cea82613ca9565b602082019050919050565b60006020820190508181036000830152613d0e81613cd2565b9050919050565b7f41646472657373206e6f74206f776e65642062792061206d656d626572000000600082015250565b6000613d4b601d83612724565b9150613d5682613d15565b602082019050919050565b60006020820190508181036000830152613d7a81613d3e565b9050919050565b7f4d656d62657220697320616c726561647920796f75722064656c656761746500600082015250565b6000613db7601f83612724565b9150613dc282613d81565b602082019050919050565b60006020820190508181036000830152613de681613daa565b9050919050565b6000604082019050613e02600083018561270a565b613e0f60208301846127b5565b9392505050565b6000613e2182612675565b9150613e2c83612675565b9250828203905081811115613e4457613e43612ff5565b5b92915050565b7f4e487b7100000000000000000000000000000000000000000000000000000000600052603160045260246000fd5b7f44656c65676174696f6e206e6f7420666f756e64000000000000000000000000600082015250565b6000613eaf601483612724565b9150613eba82613e79565b602082019050919050565b60006020820190508181036000830152613ede81613ea2565b9050919050565b50565b6000613ef5600083612724565b9150613f0082613ee5565b600082019050919050565b60006020820190508181036000830152613f2481613ee8565b9050919050565b60006020820190508181036000830152613f468184866135ec565b90509392505050565b6000613f5a82612719565b613f6481856132e2565b9350613f74818560208601612735565b80840191505092915050565b6000613f8c8284613f4f565b91508190509291505056fea264697066735822122077cff3a94e0eb533cd7e04973379506a80e388599c37ff7462c46ce9e008f1d364736f6c63430008140033",
  "linkReferences": {},
  "deployedLinkReferences": {}
}