{
  "_format": "hh-sol-artifact-1",
  "contractName": "PLNTToken",
  "sourceName": "contracts/PLNTToken.sol",
  "abi": [
    {
      "inputs": [
        {
          "internalType": "string",
          "name": "name",
          "type": "string"
        },
        {
          "internalType": "string",
          "name": "symbol",
          "type": "string"
        },
        {
          "internalType": "uint256",
          "name": "initialSupply",
          "type": "uint256"
        },
        {
          "internalType": "uint256",
          "name": "_tokenPrice",
          "type": "uint256"
        }
      ],
      "stateMutability": "nonpayable",
      "type": "constructor"
    },
    {
      "inputs": [
        {
          "internalType": "address",
          "name": "spender",
          "type": "address"
        },
        {
          "internalType": "uint256",
          "name": "allowance",
          "type": "uint256"
        },
        {
          "internalType": "uint256",
          "name": "needed",
          "type": "uint256"
        }
      ],
      "name": "ERC20InsufficientAllowance",
      "type": "error"
    },
    {
      "inputs": [
        {
          "internalType": "address",
          "name": "sender",
          "type": "address"
        },
        {
          "internalType": "uint256",
          "name": "balance",
          "type": "uint256"
        },
        {
          "internalType": "uint256",
          "name": "needed",
          "type": "uint256"
        }
      ],
      "name": "ERC20InsufficientBalance",
      "type": "error"
    },
    {
      "inputs": [
        {
          "internalType": "address",
          "name": "approver",
          "type": "address"
        }
      ],
      "name": "ERC20InvalidApprover",
      "type": "error"
    },
    {
      "inputs": [
        {
          "internalType": "address",
          "name": "receiver",
          "type": "address"
        }
      ],
      "name": "ERC20InvalidReceiver",
      "type": "error"
    },
    {
      "inputs": [
        {
          "internalType": "address",
          "name": "sender",
          "type": "address"
        }
      ],
      "name": "ERC20InvalidSender",
      "type": "error"
    },
    {
      "inputs": [
        {
          "internalType": "address",
          "name": "spender",
          "type": "address"
        }
      ],
      "name": "ERC20InvalidSpender",
      "type": "error"
    },
    {
      "anonymous": false,
      "inputs": [
        {
          "indexed": true,
          "internalType": "address",
          "name": "owner",
          "type": "address"
        },
        {
          "indexed": true,
          "internalType": "address",
          "name": "spender",
          "type": "address"
        },
        {
          "indexed": false,
          "internalType": "uint256",
          "name": "value",
          "type": "uint256"
        }
      ],
      "name": "Approval",
      "type": "event"
    },
    {
      "anonymous": false,
      "inputs": [
        {
          "indexed": true,
          "internalType": "address",
          "name": "from",
          "type": "address"
        },
        {
          "indexed": true,
          "internalType": "address",
          "name": "to",
          "type": "address"
        },
        {
          "indexed": false,
          "internalType": "uint256",
          "name": "value",
          "type": "uint256"
        }
      ],
      "name": "Transfer",
      "type": "event"
    },
    {
      "anonymous": false,
      "inputs": [
        {
          "indexed": false,
          "internalType": "uint256",
          "name": "newPrice",
          "type": "uint256"
        }
      ],
      "name": "UpdatePrice",
      "type": "event"
    },
    {
      "inputs": [
        {
          "internalType": "address",
          "name": "owner",
          "type": "address"
        },
        {
          "internalType": "address",
          "name": "spender",
          "type": "address"
        }
      ],
      "name": "allowance",
      "outputs": [
        {
          "internalType": "uint256",
          "name": "",
          "type": "uint256"
        }
      ],
      "stateMutability": "view",
      "type": "function"
    },
    {
      "inputs": [
        {
          "internalType": "address",
          "name": "spender",
          "type": "address"
        },
        {
          "internalType": "uint256",
          "name": "value",
          "type": "uint256"
        }
      ],
      "name": "approve",
      "outputs": [
        {
          "internalType": "bool",
          "name": "",
          "type": "bool"
        }
      ],
      "stateMutability": "nonpayable",
      "type": "function"
    },
    {
      "inputs": [
        {
          "internalType": "address",
          "name": "account",
          "type": "address"
        }
      ],
      "name": "balanceOf",
      "outputs": [
        {
          "internalType": "uint256",
          "name": "",
          "type": "uint256"
        }
      ],
      "stateMutability": "view",
      "type": "function"
    },
    {
      "inputs": [
        {
          "internalType": "uint256",
          "name": "amount",
          "type": "uint256"
        }
      ],
      "name": "burn",
      "outputs": [],
      "stateMutability": "nonpayable",
      "type": "function"
    },
    {
      "inputs": [],
      "name": "buyPLNT",
      "outputs": [],
      "stateMutability": "payable",
      "type": "function"
    },
    {
      "inputs": [],
      "name": "currentSupply",
      "outputs": [
        {
          "internalType": "uint256",
          "name": "",
          "type": "uint256"
        }
      ],
      "stateMutability": "view",
      "type": "function"
    },
    {
      "inputs": [],
      "name": "decimals",
      "outputs": [
        {
          "internalType": "uint8",
          "name": "",
          "type": "uint8"
        }
      ],
      "stateMutability": "view",
      "type": "function"
    },
    {
      "inputs": [],
      "name": "isSaleActive",
      "outputs": [
        {
          "internalType": "bool",
          "name": "",
          "type": "bool"
        }
      ],
      "stateMutability": "view",
      "type": "function"
    },
    {
      "inputs": [],
      "name": "name",
      "outputs": [
        {
          "internalType": "string",
          "name": "",
          "type": "string"
        }
      ],
      "stateMutability": "view",
      "type": "function"
    },
    {
      "inputs": [],
      "name": "owner",
      "outputs": [
        {
          "internalType": "address",
          "name": "",
          "type": "address"
        }
      ],
      "stateMutability": "view",
      "type": "function"
    },
    {
      "inputs": [
        {
          "internalType": "uint256",
          "name": "amount",
          "type": "uint256"
        }
      ],
      "name": "reloadTokens",
      "outputs": [],
      "stateMutability": "nonpayable",
      "type": "function"
    },
    {
      "inputs": [],
      "name": "symbol",
      "outputs": [
        {
          "internalType": "string",
          "name": "",
          "type": "string"
        }
      ],
      "stateMutability": "view",
      "type": "function"
    },
    {
      "inputs": [],
      "name": "toggleSale",
      "outputs": [],
      "stateMutability": "nonpayable",
      "type": "function"
    },
    {
      "inputs": [],
      "name": "tokenPrice",
      "outputs": [
        {
          "internalType": "uint256",
          "name": "",
          "type": "uint256"
        }
      ],
      "stateMutability": "view",
      "type": "function"
    },
    {
      "inputs": [],
      "name": "totalSupply",
      "outputs": [
        {
          "internalType": "uint256",
          "name": "",
          "type": "uint256"
        }
      ],
      "stateMutability": "view",
      "type": "function"
    },
    {
      "inputs": [
        {
          "internalType": "address",
          "name": "to",
          "type": "address"
        },
        {
          "internalType": "uint256",
          "name": "value",
          "type": "uint256"
        }
      ],
      "name": "transfer",
      "outputs": [
        {
          "internalType": "bool",
          "name": "",
          "type": "bool"
        }
      ],
      "stateMutability": "nonpayable",
      "type": "function"
    },
    {
      "inputs": [
        {
          "internalType": "address",
          "name": "from",
          "type": "address"
        },
        {
          "internalType": "address",
          "name": "to",
          "type": "address"
        },
        {
          "internalType": "uint256",
          "name": "value",
          "type": "uint256"
        }
      ],
      "name": "transferFrom",
      "outputs": [
        {
          "internalType": "bool",
          "name": "",
          "type": "bool"
        }
      ],
      "stateMutability": "nonpayable",
      "type": "function"
    },
    {
      "inputs": [
        {
          "internalType": "uint256",
          "name": "newPrice",
          "type": "uint256"
        }
      ],
      "name": "updateTokenPrice",
      "outputs": [],
      "stateMutability": "nonpayable",
      "type": "function"
    }
  ],
  "bytecode": "0x60806040523480156200001157600080fd5b506040516200236838038062002368833981810160405281019062000037919062000569565b838381600390816200004a91906200085a565b5080600490816200005c91906200085a565b50505033600660006101000a81548173ffffffffffffffffffffffffffffffffffffffff021916908373ffffffffffffffffffffffffffffffffffffffff160217905550620000b23383620000de60201b60201c565b806005819055506001600660146101000a81548160ff0219169083151502179055505050505062000a78565b600073ffffffffffffffffffffffffffffffffffffffff168273ffffffffffffffffffffffffffffffffffffffff1603620001535760006040517fec442f050000000000000000000000000000000000000000000000000000000081526004016200014a919062000986565b60405180910390fd5b62000167600083836200016b60201b60201c565b5050565b600073ffffffffffffffffffffffffffffffffffffffff168373ffffffffffffffffffffffffffffffffffffffff1603620001c1578060026000828254620001b49190620009d2565b9250508190555062000297565b60008060008573ffffffffffffffffffffffffffffffffffffffff1673ffffffffffffffffffffffffffffffffffffffff1681526020019081526020016000205490508181101562000250578381836040517fe450d38c000000000000000000000000000000000000000000000000000000008152600401620002479392919062000a1e565b60405180910390fd5b8181036000808673ffffffffffffffffffffffffffffffffffffffff1673ffffffffffffffffffffffffffffffffffffffff16815260200190815260200160002081905550505b600073ffffffffffffffffffffffffffffffffffffffff168273ffffffffffffffffffffffffffffffffffffffff1603620002e257806002600082825403925050819055506200032f565b806000808473ffffffffffffffffffffffffffffffffffffffff1673ffffffffffffffffffffffffffffffffffffffff168152602001908152602001600020600082825401925050819055505b8173ffffffffffffffffffffffffffffffffffffffff168373ffffffffffffffffffffffffffffffffffffffff167fddf252ad1be2c89b69c2b068fc378daa952ba7f163c4a11628f55a4df523b3ef836040516200038e919062000a5b565b60405180910390a3505050565b6000604051905090565b600080fd5b600080fd5b600080fd5b600080fd5b6000601f19601f8301169050919050565b7f4e487b7100000000000000000000000000000000000000000000000000000000600052604160045260246000fd5b6200040482620003b9565b810181811067ffffffffffffffff82111715620004265762000425620003ca565b5b80604052505050565b60006200043b6200039b565b9050620004498282620003f9565b919050565b600067ffffffffffffffff8211156200046c576200046b620003ca565b5b6200047782620003b9565b9050602081019050919050565b60005b83811015620004a457808201518184015260208101905062000487565b60008484015250505050565b6000620004c7620004c1846200044e565b6200042f565b905082815260208101848484011115620004e657620004e5620003b4565b5b620004f384828562000484565b509392505050565b600082601f830112620005135762000512620003af565b5b815162000525848260208601620004b0565b91505092915050565b6000819050919050565b62000543816200052e565b81146200054f57600080fd5b50565b600081519050620005638162000538565b92915050565b60008060008060808587031215620005865762000585620003a5565b5b600085015167ffffffffffffffff811115620005a757620005a6620003aa565b5b620005b587828801620004fb565b945050602085015167ffffffffffffffff811115620005d957620005d8620003aa565b5b620005e787828801620004fb565b9350506040620005fa8782880162000552565b92505060606200060d8782880162000552565b91505092959194509250565b600081519050919050565b7f4e487b7100000000000000000000000000000000000000000000000000000000600052602260045260246000fd5b600060028204905060018216806200066c57607f821691505b60208210810362000682576200068162000624565b5b50919050565b60008190508160005260206000209050919050565b60006020601f8301049050919050565b600082821b905092915050565b600060088302620006ec7fffffffffffffffffffffffffffffffffffffffffffffffffffffffffffffffff82620006ad565b620006f88683620006ad565b95508019841693508086168417925050509392505050565b6000819050919050565b60006200073b620007356200072f846200052e565b62000710565b6200052e565b9050919050565b6000819050919050565b62000757836200071a565b6200076f620007668262000742565b848454620006ba565b825550505050565b600090565b6200078662000777565b620007938184846200074c565b505050565b5b81811015620007bb57620007af6000826200077c565b60018101905062000799565b5050565b601f8211156200080a57620007d48162000688565b620007df846200069d565b81016020851015620007ef578190505b62000807620007fe856200069d565b83018262000798565b50505b505050565b600082821c905092915050565b60006200082f600019846008026200080f565b1980831691505092915050565b60006200084a83836200081c565b9150826002028217905092915050565b620008658262000619565b67ffffffffffffffff811115620008815762000880620003ca565b5b6200088d825462000653565b6200089a828285620007bf565b600060209050601f831160018114620008d25760008415620008bd578287015190505b620008c985826200083c565b86555062000939565b601f198416620008e28662000688565b60005b828110156200090c57848901518255600182019150602085019450602081019050620008e5565b868310156200092c578489015162000928601f8916826200081c565b8355505b6001600288020188555050505b505050505050565b600073ffffffffffffffffffffffffffffffffffffffff82169050919050565b60006200096e8262000941565b9050919050565b620009808162000961565b82525050565b60006020820190506200099d600083018462000975565b92915050565b7f4e487b7100000000000000000000000000000000000000000000000000000000600052601160045260246000fd5b6000620009df826200052e565b9150620009ec836200052e565b925082820190508082111562000a075762000a06620009a3565b5b92915050565b62000a18816200052e565b82525050565b600060608201905062000a35600083018662000975565b62000a44602083018562000a0d565b62000a53604083018462000a0d565b949350505050565b600060208201905062000a72600083018462000a0d565b92915050565b6118e08062000a886000396000f3fe6080604052600436106101095760003560e01c806370a0823111610095578063846fbb1011610064578063846fbb101461033a5780638da5cb5b1461036357806395d89b411461038e578063a9059cbb146103b9578063dd62ed3e146103f657610109565b806370a0823114610290578063771282f6146102cd5780637d8966e4146102f85780637ff9b5961461030f57610109565b80632d858ae4116100dc5780632d858ae4146101de578063313ce567146101e857806342966c6814610213578063564566a81461023c578063676c0d771461026757610109565b806306fdde031461010e578063095ea7b31461013957806318160ddd1461017657806323b872dd146101a1575b600080fd5b34801561011a57600080fd5b50610123610433565b60405161013091906112f7565b60405180910390f35b34801561014557600080fd5b50610160600480360381019061015b91906113b2565b6104c5565b60405161016d919061140d565b60405180910390f35b34801561018257600080fd5b5061018b6104e8565b6040516101989190611437565b60405180910390f35b3480156101ad57600080fd5b506101c860048036038101906101c39190611452565b6104f2565b6040516101d5919061140d565b60405180910390f35b6101e6610521565b005b3480156101f457600080fd5b506101fd61069a565b60405161020a91906114c1565b60405180910390f35b34801561021f57600080fd5b5061023a600480360381019061023591906114dc565b6106a3565b005b34801561024857600080fd5b50610251610783565b60405161025e919061140d565b60405180910390f35b34801561027357600080fd5b5061028e600480360381019061028991906114dc565b610796565b005b34801561029c57600080fd5b506102b760048036038101906102b29190611509565b610867565b6040516102c49190611437565b60405180910390f35b3480156102d957600080fd5b506102e26108af565b6040516102ef9190611437565b60405180910390f35b34801561030457600080fd5b5061030d6108e1565b005b34801561031b57600080fd5b5061032461099d565b6040516103319190611437565b60405180910390f35b34801561034657600080fd5b50610361600480360381019061035c91906114dc565b6109a3565b005b34801561036f57600080fd5b50610378610a62565b6040516103859190611545565b60405180910390f35b34801561039a57600080fd5b506103a3610a88565b6040516103b091906112f7565b60405180910390f35b3480156103c557600080fd5b506103e060048036038101906103db91906113b2565b610b1a565b6040516103ed919061140d565b60405180910390f35b34801561040257600080fd5b5061041d60048036038101906104189190611560565b610b3d565b60405161042a9190611437565b60405180910390f35b606060038054610442906115cf565b80601f016020809104026020016040519081016040528092919081815260200182805461046e906115cf565b80156104bb5780601f10610490576101008083540402835291602001916104bb565b820191906000526020600020905b81548152906001019060200180831161049e57829003601f168201915b5050505050905090565b6000806104d0610bc4565b90506104dd818585610bcc565b600191505092915050565b6000600254905090565b6000806104fd610bc4565b905061050a858285610bde565b610515858585610c73565b60019150509392505050565b60003411610564576040517f08c379a000000000000000000000000000000000000000000000000000000000815260040161055b9061164c565b60405180910390fd5b60006005543461057491906116ca565b90506105a1600660009054906101000a900473ffffffffffffffffffffffffffffffffffffffff16610867565b8111156105e3576040517f08c379a00000000000000000000000000000000000000000000000000000000081526004016105da90611747565b60405180910390fd5b610610600660009054906101000a900473ffffffffffffffffffffffffffffffffffffffff163383610c73565b3373ffffffffffffffffffffffffffffffffffffffff16600660009054906101000a900473ffffffffffffffffffffffffffffffffffffffff1673ffffffffffffffffffffffffffffffffffffffff167fddf252ad1be2c89b69c2b068fc378daa952ba7f163c4a11628f55a4df523b3ef8360405161068f9190611437565b60405180910390a350565b60006012905090565b600660009054906101000a900473ffffffffffffffffffffffffffffffffffffffff1673ffffffffffffffffffffffffffffffffffffffff163373ffffffffffffffffffffffffffffffffffffffff1614610733576040517f08c379a000000000000000000000000000000000000000000000000000000000815260040161072a906117b3565b60405180910390fd5b60008111610776576040517f08c379a000000000000000000000000000000000000000000000000000000000815260040161076d9061181f565b60405180910390fd5b6107803382610d67565b50565b600660149054906101000a900460ff1681565b600660009054906101000a900473ffffffffffffffffffffffffffffffffffffffff1673ffffffffffffffffffffffffffffffffffffffff163373ffffffffffffffffffffffffffffffffffffffff1614610826576040517f08c379a000000000000000000000000000000000000000000000000000000000815260040161081d906117b3565b60405180910390fd5b806005819055507f1a15ab7124a4e1ce00837351261771caf1691cd7d85ed3a0ac3157a1ee1a38058160405161085c9190611437565b60405180910390a150565b60008060008373ffffffffffffffffffffffffffffffffffffffff1673ffffffffffffffffffffffffffffffffffffffff168152602001908152602001600020549050919050565b60006108dc600660009054906101000a900473ffffffffffffffffffffffffffffffffffffffff16610867565b905090565b600660009054906101000a900473ffffffffffffffffffffffffffffffffffffffff1673ffffffffffffffffffffffffffffffffffffffff163373ffffffffffffffffffffffffffffffffffffffff1614610971576040517f08c379a0000000000000000000000000000000000000000000000000000000008152600401610968906117b3565b60405180910390fd5b600660149054906101000a900460ff1615600660146101000a81548160ff021916908315150217905550565b60055481565b600660009054906101000a900473ffffffffffffffffffffffffffffffffffffffff1673ffffffffffffffffffffffffffffffffffffffff163373ffffffffffffffffffffffffffffffffffffffff1614610a33576040517f08c379a0000000000000000000000000000000000000000000000000000000008152600401610a2a906117b3565b60405180910390fd5b610a5f600660009054906101000a900473ffffffffffffffffffffffffffffffffffffffff1682610de9565b50565b600660009054906101000a900473ffffffffffffffffffffffffffffffffffffffff1681565b606060048054610a97906115cf565b80601f0160208091040260200160405190810160405280929190818152602001828054610ac3906115cf565b8015610b105780601f10610ae557610100808354040283529160200191610b10565b820191906000526020600020905b815481529060010190602001808311610af357829003601f168201915b5050505050905090565b600080610b25610bc4565b9050610b32818585610c73565b600191505092915050565b6000600160008473ffffffffffffffffffffffffffffffffffffffff1673ffffffffffffffffffffffffffffffffffffffff16815260200190815260200160002060008373ffffffffffffffffffffffffffffffffffffffff1673ffffffffffffffffffffffffffffffffffffffff16815260200190815260200160002054905092915050565b600033905090565b610bd98383836001610e6b565b505050565b6000610bea8484610b3d565b90507fffffffffffffffffffffffffffffffffffffffffffffffffffffffffffffffff811015610c6d5781811015610c5d578281836040517ffb8f41b2000000000000000000000000000000000000000000000000000000008152600401610c549392919061183f565b60405180910390fd5b610c6c84848484036000610e6b565b5b50505050565b600073ffffffffffffffffffffffffffffffffffffffff168373ffffffffffffffffffffffffffffffffffffffff1603610ce55760006040517f96c6fd1e000000000000000000000000000000000000000000000000000000008152600401610cdc9190611545565b60405180910390fd5b600073ffffffffffffffffffffffffffffffffffffffff168273ffffffffffffffffffffffffffffffffffffffff1603610d575760006040517fec442f05000000000000000000000000000000000000000000000000000000008152600401610d4e9190611545565b60405180910390fd5b610d62838383611042565b505050565b600073ffffffffffffffffffffffffffffffffffffffff168273ffffffffffffffffffffffffffffffffffffffff1603610dd95760006040517f96c6fd1e000000000000000000000000000000000000000000000000000000008152600401610dd09190611545565b60405180910390fd5b610de582600083611042565b5050565b600073ffffffffffffffffffffffffffffffffffffffff168273ffffffffffffffffffffffffffffffffffffffff1603610e5b5760006040517fec442f05000000000000000000000000000000000000000000000000000000008152600401610e529190611545565b60405180910390fd5b610e6760008383611042565b5050565b600073ffffffffffffffffffffffffffffffffffffffff168473ffffffffffffffffffffffffffffffffffffffff1603610edd5760006040517fe602df05000000000000000000000000000000000000000000000000000000008152600401610ed49190611545565b60405180910390fd5b600073ffffffffffffffffffffffffffffffffffffffff168373ffffffffffffffffffffffffffffffffffffffff1603610f4f5760006040517f94280d62000000000000000000000000000000000000000000000000000000008152600401610f469190611545565b60405180910390fd5b81600160008673ffffffffffffffffffffffffffffffffffffffff1673ffffffffffffffffffffffffffffffffffffffff16815260200190815260200160002060008573ffffffffffffffffffffffffffffffffffffffff1673ffffffffffffffffffffffffffffffffffffffff16815260200190815260200160002081905550801561103c578273ffffffffffffffffffffffffffffffffffffffff168473ffffffffffffffffffffffffffffffffffffffff167f8c5be1e5ebec7d5bd14f71427d1e84f3dd0314c0f7b2291e5b200ac8c7c3b925846040516110339190611437565b60405180910390a35b50505050565b600073ffffffffffffffffffffffffffffffffffffffff168373ffffffffffffffffffffffffffffffffffffffff16036110945780600260008282546110889190611876565b92505081905550611167565b60008060008573ffffffffffffffffffffffffffffffffffffffff1673ffffffffffffffffffffffffffffffffffffffff16815260200190815260200160002054905081811015611120578381836040517fe450d38c0000000000000000000000000000000000000000000000000000000081526004016111179392919061183f565b60405180910390fd5b8181036000808673ffffffffffffffffffffffffffffffffffffffff1673ffffffffffffffffffffffffffffffffffffffff16815260200190815260200160002081905550505b600073ffffffffffffffffffffffffffffffffffffffff168273ffffffffffffffffffffffffffffffffffffffff16036111b057806002600082825403925050819055506111fd565b806000808473ffffffffffffffffffffffffffffffffffffffff1673ffffffffffffffffffffffffffffffffffffffff168152602001908152602001600020600082825401925050819055505b8173ffffffffffffffffffffffffffffffffffffffff168373ffffffffffffffffffffffffffffffffffffffff167fddf252ad1be2c89b69c2b068fc378daa952ba7f163c4a11628f55a4df523b3ef8360405161125a9190611437565b60405180910390a3505050565b600081519050919050565b600082825260208201905092915050565b60005b838110156112a1578082015181840152602081019050611286565b60008484015250505050565b6000601f19601f8301169050919050565b60006112c982611267565b6112d38185611272565b93506112e3818560208601611283565b6112ec816112ad565b840191505092915050565b6000602082019050818103600083015261131181846112be565b905092915050565b600080fd5b600073ffffffffffffffffffffffffffffffffffffffff82169050919050565b60006113498261131e565b9050919050565b6113598161133e565b811461136457600080fd5b50565b60008135905061137681611350565b92915050565b6000819050919050565b61138f8161137c565b811461139a57600080fd5b50565b6000813590506113ac81611386565b92915050565b600080604083850312156113c9576113c8611319565b5b60006113d785828601611367565b92505060206113e88582860161139d565b9150509250929050565b60008115159050919050565b611407816113f2565b82525050565b600060208201905061142260008301846113fe565b92915050565b6114318161137c565b82525050565b600060208201905061144c6000830184611428565b92915050565b60008060006060848603121561146b5761146a611319565b5b600061147986828701611367565b935050602061148a86828701611367565b925050604061149b8682870161139d565b9150509250925092565b600060ff82169050919050565b6114bb816114a5565b82525050565b60006020820190506114d660008301846114b2565b92915050565b6000602082840312156114f2576114f1611319565b5b60006115008482850161139d565b91505092915050565b60006020828403121561151f5761151e611319565b5b600061152d84828501611367565b91505092915050565b61153f8161133e565b82525050565b600060208201905061155a6000830184611536565b92915050565b6000806040838503121561157757611576611319565b5b600061158585828601611367565b925050602061159685828601611367565b9150509250929050565b7f4e487b7100000000000000000000000000000000000000000000000000000000600052602260045260246000fd5b600060028204905060018216806115e757607f821691505b6020821081036115fa576115f96115a0565b5b50919050565b7f496e73756666696369656e742076616c75652073656e74000000000000000000600082015250565b6000611636601783611272565b915061164182611600565b602082019050919050565b6000602082019050818103600083015261166581611629565b9050919050565b7f4e487b7100000000000000000000000000000000000000000000000000000000600052601260045260246000fd5b7f4e487b7100000000000000000000000000000000000000000000000000000000600052601160045260246000fd5b60006116d58261137c565b91506116e08361137c565b9250826116f0576116ef61166c565b5b828204905092915050565b7f4e6f7420656e6f75676820737570706c7920617661696c61626c650000000000600082015250565b6000611731601b83611272565b915061173c826116fb565b602082019050919050565b6000602082019050818103600083015261176081611724565b9050919050565b7f53656e646572206d75737420626520746865206f776e65720000000000000000600082015250565b600061179d601883611272565b91506117a882611767565b602082019050919050565b600060208201905081810360008301526117cc81611790565b9050919050565b7f416d6f756e74206d7573742062652067726561746572207468616e2030000000600082015250565b6000611809601d83611272565b9150611814826117d3565b602082019050919050565b60006020820190508181036000830152611838816117fc565b9050919050565b60006060820190506118546000830186611536565b6118616020830185611428565b61186e6040830184611428565b949350505050565b60006118818261137c565b915061188c8361137c565b92508282019050808211156118a4576118a361169b565b5b9291505056fea2646970667358221220fb25e91a90d6c8e65173bf34c089387f7cd476cfee0eeab2721040dcde88cfeb64736f6c63430008140033",
  "linkReferences": {},
  "deployedLinkReferences": {}
}